{
  "contracts/Token.sol": {
    "Pausable": {
      "abi": [
        {
          "constant": false,
          "inputs": [],
          "name": "unpause",
          "outputs": [],
          "payable": false,
          "stateMutability": "nonpayable",
          "type": "function"
        },
        {
          "constant": true,
          "inputs": [],
          "name": "paused",
          "outputs": [
            {
              "name": "",
              "type": "bool"
            }
          ],
          "payable": false,
          "stateMutability": "view",
          "type": "function"
        },
        {
          "constant": false,
          "inputs": [],
          "name": "pause",
          "outputs": [],
          "payable": false,
          "stateMutability": "nonpayable",
          "type": "function"
        },
        {
          "constant": true,
          "inputs": [],
          "name": "owner",
          "outputs": [
            {
              "name": "",
              "type": "address"
            }
          ],
          "payable": false,
          "stateMutability": "view",
          "type": "function"
        },
        {
          "constant": false,
          "inputs": [
            {
              "name": "newOwner",
              "type": "address"
            }
          ],
          "name": "transferOwnership",
          "outputs": [],
          "payable": false,
          "stateMutability": "nonpayable",
          "type": "function"
        },
        {
          "anonymous": false,
          "inputs": [],
          "name": "Pause",
          "type": "event"
        },
        {
          "anonymous": false,
          "inputs": [],
          "name": "Unpause",
          "type": "event"
        }
      ],
      "devdoc": {
        "methods": {
          "pause()": {
            "details": "called by the owner to pause, triggers stopped state\r"
          },
          "transferOwnership(address)": {
            "details": "Allows the current owner to transfer control of the contract to a newOwner.\r",
            "params": {
              "newOwner": "The address to transfer ownership to.\r"
            }
          },
          "unpause()": {
            "details": "called by the owner to unpause, returns to normal state\r"
          }
        },
        "title": "Pausable\r"
      },
      "evm": {
        "assembly": "    /* \"contracts/Token.sol\":7541:8324  contract Pausable is Ownable {\r... */\n  mstore(0x40, 0x60)\n    /* \"contracts/Token.sol\":7636:7641  false */\n  0x0\n    /* \"contracts/Token.sol\":7615:7641  bool public paused = false */\n  dup1\n  exp(0x100, 0x14)\n  dup2\n  sload\n  dup2\n  0xff\n  mul\n  not\n  and\n  swap1\n  dup4\n  iszero\n  iszero\n  mul\n  or\n  swap1\n  sstore\n  pop\n    /* \"contracts/Token.sol\":1438:1448  msg.sender */\n  caller\n    /* \"contracts/Token.sol\":1430:1435  owner */\n  0x0\n  dup1\n    /* \"contracts/Token.sol\":1430:1448  owner = msg.sender */\n  0x100\n  exp\n  dup2\n  sload\n  dup2\n  0xffffffffffffffffffffffffffffffffffffffff\n  mul\n  not\n  and\n  swap1\n  dup4\n  0xffffffffffffffffffffffffffffffffffffffff\n  and\n  mul\n  or\n  swap1\n  sstore\n  pop\n    /* \"contracts/Token.sol\":7541:8324  contract Pausable is Ownable {\r... */\n  dataSize(sub_0)\n  dup1\n  dataOffset(sub_0)\n  0x0\n  codecopy\n  0x0\n  return\nstop\n\nsub_0: assembly {\n        /* \"contracts/Token.sol\":7541:8324  contract Pausable is Ownable {\r... */\n      mstore(0x40, 0x60)\n      calldataload(0x0)\n      0x100000000000000000000000000000000000000000000000000000000\n      swap1\n      div\n      0xffffffff\n      and\n      dup1\n      0x3f4ba83a\n      eq\n      tag_2\n      jumpi\n      dup1\n      0x5c975abb\n      eq\n      tag_3\n      jumpi\n      dup1\n      0x8456cb59\n      eq\n      tag_4\n      jumpi\n      dup1\n      0x8da5cb5b\n      eq\n      tag_5\n      jumpi\n      dup1\n      0xf2fde38b\n      eq\n      tag_6\n      jumpi\n      0x0\n      dup1\n      revert\n        /* \"contracts/Token.sol\":8231:8321  function unpause() onlyOwner whenPaused public {\r... */\n    tag_2:\n      jumpi(tag_7, iszero(callvalue))\n      0x0\n      dup1\n      revert\n    tag_7:\n      tag_8\n      jump(tag_9)\n    tag_8:\n      stop\n        /* \"contracts/Token.sol\":7615:7641  bool public paused = false */\n    tag_3:\n      jumpi(tag_10, iszero(callvalue))\n      0x0\n      dup1\n      revert\n    tag_10:\n      tag_11\n      jump(tag_12)\n    tag_11:\n      mload(0x40)\n      dup1\n      dup3\n      iszero\n      iszero\n      iszero\n      iszero\n      dup2\n      mstore\n      0x20\n      add\n      swap2\n      pop\n      pop\n      mload(0x40)\n      dup1\n      swap2\n      sub\n      swap1\n      return\n        /* \"contracts/Token.sol\":8056:8144  function pause() onlyOwner whenNotPaused public {\r... */\n    tag_4:\n      jumpi(tag_13, iszero(callvalue))\n      0x0\n      dup1\n      revert\n    tag_13:\n      tag_14\n      jump(tag_15)\n    tag_14:\n      stop\n        /* \"contracts/Token.sol\":1233:1253  address public owner */\n    tag_5:\n      jumpi(tag_16, iszero(callvalue))\n      0x0\n      dup1\n      revert\n    tag_16:\n      tag_17\n      jump(tag_18)\n    tag_17:\n      mload(0x40)\n      dup1\n      dup3\n      0xffffffffffffffffffffffffffffffffffffffff\n      and\n      0xffffffffffffffffffffffffffffffffffffffff\n      and\n      dup2\n      mstore\n      0x20\n      add\n      swap2\n      pop\n      pop\n      mload(0x40)\n      dup1\n      swap2\n      sub\n      swap1\n      return\n        /* \"contracts/Token.sol\":1805:1956  function transferOwnership(address newOwner) public onlyOwner {\r... */\n    tag_6:\n      jumpi(tag_19, iszero(callvalue))\n      0x0\n      dup1\n      revert\n    tag_19:\n      tag_20\n      0x4\n      dup1\n      dup1\n      calldataload\n      0xffffffffffffffffffffffffffffffffffffffff\n      and\n      swap1\n      0x20\n      add\n      swap1\n      swap2\n      swap1\n      pop\n      pop\n      jump(tag_21)\n    tag_20:\n      stop\n        /* \"contracts/Token.sol\":8231:8321  function unpause() onlyOwner whenPaused public {\r... */\n    tag_9:\n        /* \"contracts/Token.sol\":1605:1610  owner */\n      0x0\n      dup1\n      swap1\n      sload\n      swap1\n      0x100\n      exp\n      swap1\n      div\n      0xffffffffffffffffffffffffffffffffffffffff\n      and\n        /* \"contracts/Token.sol\":1591:1610  msg.sender == owner */\n      0xffffffffffffffffffffffffffffffffffffffff\n      and\n        /* \"contracts/Token.sol\":1591:1601  msg.sender */\n      caller\n        /* \"contracts/Token.sol\":1591:1610  msg.sender == owner */\n      0xffffffffffffffffffffffffffffffffffffffff\n      and\n      eq\n        /* \"contracts/Token.sol\":1583:1611  require(msg.sender == owner) */\n      iszero\n      iszero\n      tag_23\n      jumpi\n      0x0\n      dup1\n      revert\n    tag_23:\n        /* \"contracts/Token.sol\":7951:7957  paused */\n      0x0\n      0x14\n      swap1\n      sload\n      swap1\n      0x100\n      exp\n      swap1\n      div\n      0xff\n      and\n        /* \"contracts/Token.sol\":7943:7958  require(paused) */\n      iszero\n      iszero\n      tag_25\n      jumpi\n      0x0\n      dup1\n      revert\n    tag_25:\n        /* \"contracts/Token.sol\":8294:8299  false */\n      0x0\n        /* \"contracts/Token.sol\":8285:8291  paused */\n      dup1\n      0x14\n        /* \"contracts/Token.sol\":8285:8299  paused = false */\n      0x100\n      exp\n      dup2\n      sload\n      dup2\n      0xff\n      mul\n      not\n      and\n      swap1\n      dup4\n      iszero\n      iszero\n      mul\n      or\n      swap1\n      sstore\n      pop\n        /* \"contracts/Token.sol\":8306:8315  Unpause() */\n      0x7805862f689e2f13df9f062ff482ad3ad112aca9e0847911ed832e158c525b33\n      mload(0x40)\n      mload(0x40)\n      dup1\n      swap2\n      sub\n      swap1\n      log1\n        /* \"contracts/Token.sol\":8231:8321  function unpause() onlyOwner whenPaused public {\r... */\n      jump\t// out\n        /* \"contracts/Token.sol\":7615:7641  bool public paused = false */\n    tag_12:\n      0x0\n      0x14\n      swap1\n      sload\n      swap1\n      0x100\n      exp\n      swap1\n      div\n      0xff\n      and\n      dup2\n      jump\t// out\n        /* \"contracts/Token.sol\":8056:8144  function pause() onlyOwner whenNotPaused public {\r... */\n    tag_15:\n        /* \"contracts/Token.sol\":1605:1610  owner */\n      0x0\n      dup1\n      swap1\n      sload\n      swap1\n      0x100\n      exp\n      swap1\n      div\n      0xffffffffffffffffffffffffffffffffffffffff\n      and\n        /* \"contracts/Token.sol\":1591:1610  msg.sender == owner */\n      0xffffffffffffffffffffffffffffffffffffffff\n      and\n        /* \"contracts/Token.sol\":1591:1601  msg.sender */\n      caller\n        /* \"contracts/Token.sol\":1591:1610  msg.sender == owner */\n      0xffffffffffffffffffffffffffffffffffffffff\n      and\n      eq\n        /* \"contracts/Token.sol\":1583:1611  require(msg.sender == owner) */\n      iszero\n      iszero\n      tag_28\n      jumpi\n      0x0\n      dup1\n      revert\n    tag_28:\n        /* \"contracts/Token.sol\":7791:7797  paused */\n      0x0\n      0x14\n      swap1\n      sload\n      swap1\n      0x100\n      exp\n      swap1\n      div\n      0xff\n      and\n        /* \"contracts/Token.sol\":7790:7797  !paused */\n      iszero\n        /* \"contracts/Token.sol\":7782:7798  require(!paused) */\n      iszero\n      iszero\n      tag_30\n      jumpi\n      0x0\n      dup1\n      revert\n    tag_30:\n        /* \"contracts/Token.sol\":8120:8124  true */\n      0x1\n        /* \"contracts/Token.sol\":8111:8117  paused */\n      0x0\n      0x14\n        /* \"contracts/Token.sol\":8111:8124  paused = true */\n      0x100\n      exp\n      dup2\n      sload\n      dup2\n      0xff\n      mul\n      not\n      and\n      swap1\n      dup4\n      iszero\n      iszero\n      mul\n      or\n      swap1\n      sstore\n      pop\n        /* \"contracts/Token.sol\":8131:8138  Pause() */\n      0x6985a02210a168e66602d3235cb6db0e70f92b3ba4d376a33c0f3d9434bff625\n      mload(0x40)\n      mload(0x40)\n      dup1\n      swap2\n      sub\n      swap1\n      log1\n        /* \"contracts/Token.sol\":8056:8144  function pause() onlyOwner whenNotPaused public {\r... */\n      jump\t// out\n        /* \"contracts/Token.sol\":1233:1253  address public owner */\n    tag_18:\n      0x0\n      dup1\n      swap1\n      sload\n      swap1\n      0x100\n      exp\n      swap1\n      div\n      0xffffffffffffffffffffffffffffffffffffffff\n      and\n      dup2\n      jump\t// out\n        /* \"contracts/Token.sol\":1805:1956  function transferOwnership(address newOwner) public onlyOwner {\r... */\n    tag_21:\n        /* \"contracts/Token.sol\":1605:1610  owner */\n      0x0\n      dup1\n      swap1\n      sload\n      swap1\n      0x100\n      exp\n      swap1\n      div\n      0xffffffffffffffffffffffffffffffffffffffff\n      and\n        /* \"contracts/Token.sol\":1591:1610  msg.sender == owner */\n      0xffffffffffffffffffffffffffffffffffffffff\n      and\n        /* \"contracts/Token.sol\":1591:1601  msg.sender */\n      caller\n        /* \"contracts/Token.sol\":1591:1610  msg.sender == owner */\n      0xffffffffffffffffffffffffffffffffffffffff\n      and\n      eq\n        /* \"contracts/Token.sol\":1583:1611  require(msg.sender == owner) */\n      iszero\n      iszero\n      tag_33\n      jumpi\n      0x0\n      dup1\n      revert\n    tag_33:\n        /* \"contracts/Token.sol\":1902:1903  0 */\n      0x0\n        /* \"contracts/Token.sol\":1882:1904  newOwner != address(0) */\n      0xffffffffffffffffffffffffffffffffffffffff\n      and\n        /* \"contracts/Token.sol\":1882:1890  newOwner */\n      dup2\n        /* \"contracts/Token.sol\":1882:1904  newOwner != address(0) */\n      0xffffffffffffffffffffffffffffffffffffffff\n      and\n      eq\n      iszero\n        /* \"contracts/Token.sol\":1878:1949  if (newOwner != address(0)) {\r... */\n      iszero\n      tag_35\n      jumpi\n        /* \"contracts/Token.sol\":1929:1937  newOwner */\n      dup1\n        /* \"contracts/Token.sol\":1921:1926  owner */\n      0x0\n      dup1\n        /* \"contracts/Token.sol\":1921:1937  owner = newOwner */\n      0x100\n      exp\n      dup2\n      sload\n      dup2\n      0xffffffffffffffffffffffffffffffffffffffff\n      mul\n      not\n      and\n      swap1\n      dup4\n      0xffffffffffffffffffffffffffffffffffffffff\n      and\n      mul\n      or\n      swap1\n      sstore\n      pop\n        /* \"contracts/Token.sol\":1878:1949  if (newOwner != address(0)) {\r... */\n    tag_35:\n        /* \"contracts/Token.sol\":1805:1956  function transferOwnership(address newOwner) public onlyOwner {\r... */\n      pop\n      jump\t// out\n\n    auxdata: 0xa165627a7a72305820f3d15453e7234e3244d8403b5839557d794e968d19b398df8eb5672207226de20029\n}\n",
        "bytecode": {
          "linkReferences": {},
          "object": "606060405260008060146101000a81548160ff021916908315150217905550336000806101000a81548173ffffffffffffffffffffffffffffffffffffffff021916908373ffffffffffffffffffffffffffffffffffffffff1602179055506104058061006d6000396000f30060606040526000357c0100000000000000000000000000000000000000000000000000000000900463ffffffff1680633f4ba83a146100695780635c975abb1461007e5780638456cb59146100ab5780638da5cb5b146100c0578063f2fde38b1461011557600080fd5b341561007457600080fd5b61007c61014e565b005b341561008957600080fd5b61009161020c565b604051808215151515815260200191505060405180910390f35b34156100b657600080fd5b6100be61021f565b005b34156100cb57600080fd5b6100d36102df565b604051808273ffffffffffffffffffffffffffffffffffffffff1673ffffffffffffffffffffffffffffffffffffffff16815260200191505060405180910390f35b341561012057600080fd5b61014c600480803573ffffffffffffffffffffffffffffffffffffffff16906020019091905050610304565b005b6000809054906101000a900473ffffffffffffffffffffffffffffffffffffffff1673ffffffffffffffffffffffffffffffffffffffff163373ffffffffffffffffffffffffffffffffffffffff161415156101a957600080fd5b600060149054906101000a900460ff1615156101c457600080fd5b60008060146101000a81548160ff0219169083151502179055507f7805862f689e2f13df9f062ff482ad3ad112aca9e0847911ed832e158c525b3360405160405180910390a1565b600060149054906101000a900460ff1681565b6000809054906101000a900473ffffffffffffffffffffffffffffffffffffffff1673ffffffffffffffffffffffffffffffffffffffff163373ffffffffffffffffffffffffffffffffffffffff1614151561027a57600080fd5b600060149054906101000a900460ff1615151561029657600080fd5b6001600060146101000a81548160ff0219169083151502179055507f6985a02210a168e66602d3235cb6db0e70f92b3ba4d376a33c0f3d9434bff62560405160405180910390a1565b6000809054906101000a900473ffffffffffffffffffffffffffffffffffffffff1681565b6000809054906101000a900473ffffffffffffffffffffffffffffffffffffffff1673ffffffffffffffffffffffffffffffffffffffff163373ffffffffffffffffffffffffffffffffffffffff1614151561035f57600080fd5b600073ffffffffffffffffffffffffffffffffffffffff168173ffffffffffffffffffffffffffffffffffffffff161415156103d657806000806101000a81548173ffffffffffffffffffffffffffffffffffffffff021916908373ffffffffffffffffffffffffffffffffffffffff1602179055505b505600a165627a7a72305820f3d15453e7234e3244d8403b5839557d794e968d19b398df8eb5672207226de20029",
          "opcodes": "PUSH1 0x60 PUSH1 0x40 MSTORE PUSH1 0x0 DUP1 PUSH1 0x14 PUSH2 0x100 EXP DUP2 SLOAD DUP2 PUSH1 0xFF MUL NOT AND SWAP1 DUP4 ISZERO ISZERO MUL OR SWAP1 SSTORE POP CALLER PUSH1 0x0 DUP1 PUSH2 0x100 EXP DUP2 SLOAD DUP2 PUSH20 0xFFFFFFFFFFFFFFFFFFFFFFFFFFFFFFFFFFFFFFFF MUL NOT AND SWAP1 DUP4 PUSH20 0xFFFFFFFFFFFFFFFFFFFFFFFFFFFFFFFFFFFFFFFF AND MUL OR SWAP1 SSTORE POP PUSH2 0x405 DUP1 PUSH2 0x6D PUSH1 0x0 CODECOPY PUSH1 0x0 RETURN STOP PUSH1 0x60 PUSH1 0x40 MSTORE PUSH1 0x0 CALLDATALOAD PUSH29 0x100000000000000000000000000000000000000000000000000000000 SWAP1 DIV PUSH4 0xFFFFFFFF AND DUP1 PUSH4 0x3F4BA83A EQ PUSH2 0x69 JUMPI DUP1 PUSH4 0x5C975ABB EQ PUSH2 0x7E JUMPI DUP1 PUSH4 0x8456CB59 EQ PUSH2 0xAB JUMPI DUP1 PUSH4 0x8DA5CB5B EQ PUSH2 0xC0 JUMPI DUP1 PUSH4 0xF2FDE38B EQ PUSH2 0x115 JUMPI PUSH1 0x0 DUP1 REVERT JUMPDEST CALLVALUE ISZERO PUSH2 0x74 JUMPI PUSH1 0x0 DUP1 REVERT JUMPDEST PUSH2 0x7C PUSH2 0x14E JUMP JUMPDEST STOP JUMPDEST CALLVALUE ISZERO PUSH2 0x89 JUMPI PUSH1 0x0 DUP1 REVERT JUMPDEST PUSH2 0x91 PUSH2 0x20C JUMP JUMPDEST PUSH1 0x40 MLOAD DUP1 DUP3 ISZERO ISZERO ISZERO ISZERO DUP2 MSTORE PUSH1 0x20 ADD SWAP2 POP POP PUSH1 0x40 MLOAD DUP1 SWAP2 SUB SWAP1 RETURN JUMPDEST CALLVALUE ISZERO PUSH2 0xB6 JUMPI PUSH1 0x0 DUP1 REVERT JUMPDEST PUSH2 0xBE PUSH2 0x21F JUMP JUMPDEST STOP JUMPDEST CALLVALUE ISZERO PUSH2 0xCB JUMPI PUSH1 0x0 DUP1 REVERT JUMPDEST PUSH2 0xD3 PUSH2 0x2DF JUMP JUMPDEST PUSH1 0x40 MLOAD DUP1 DUP3 PUSH20 0xFFFFFFFFFFFFFFFFFFFFFFFFFFFFFFFFFFFFFFFF AND PUSH20 0xFFFFFFFFFFFFFFFFFFFFFFFFFFFFFFFFFFFFFFFF AND DUP2 MSTORE PUSH1 0x20 ADD SWAP2 POP POP PUSH1 0x40 MLOAD DUP1 SWAP2 SUB SWAP1 RETURN JUMPDEST CALLVALUE ISZERO PUSH2 0x120 JUMPI PUSH1 0x0 DUP1 REVERT JUMPDEST PUSH2 0x14C PUSH1 0x4 DUP1 DUP1 CALLDATALOAD PUSH20 0xFFFFFFFFFFFFFFFFFFFFFFFFFFFFFFFFFFFFFFFF AND SWAP1 PUSH1 0x20 ADD SWAP1 SWAP2 SWAP1 POP POP PUSH2 0x304 JUMP JUMPDEST STOP JUMPDEST PUSH1 0x0 DUP1 SWAP1 SLOAD SWAP1 PUSH2 0x100 EXP SWAP1 DIV PUSH20 0xFFFFFFFFFFFFFFFFFFFFFFFFFFFFFFFFFFFFFFFF AND PUSH20 0xFFFFFFFFFFFFFFFFFFFFFFFFFFFFFFFFFFFFFFFF AND CALLER PUSH20 0xFFFFFFFFFFFFFFFFFFFFFFFFFFFFFFFFFFFFFFFF AND EQ ISZERO ISZERO PUSH2 0x1A9 JUMPI PUSH1 0x0 DUP1 REVERT JUMPDEST PUSH1 0x0 PUSH1 0x14 SWAP1 SLOAD SWAP1 PUSH2 0x100 EXP SWAP1 DIV PUSH1 0xFF AND ISZERO ISZERO PUSH2 0x1C4 JUMPI PUSH1 0x0 DUP1 REVERT JUMPDEST PUSH1 0x0 DUP1 PUSH1 0x14 PUSH2 0x100 EXP DUP2 SLOAD DUP2 PUSH1 0xFF MUL NOT AND SWAP1 DUP4 ISZERO ISZERO MUL OR SWAP1 SSTORE POP PUSH32 0x7805862F689E2F13DF9F062FF482AD3AD112ACA9E0847911ED832E158C525B33 PUSH1 0x40 MLOAD PUSH1 0x40 MLOAD DUP1 SWAP2 SUB SWAP1 LOG1 JUMP JUMPDEST PUSH1 0x0 PUSH1 0x14 SWAP1 SLOAD SWAP1 PUSH2 0x100 EXP SWAP1 DIV PUSH1 0xFF AND DUP2 JUMP JUMPDEST PUSH1 0x0 DUP1 SWAP1 SLOAD SWAP1 PUSH2 0x100 EXP SWAP1 DIV PUSH20 0xFFFFFFFFFFFFFFFFFFFFFFFFFFFFFFFFFFFFFFFF AND PUSH20 0xFFFFFFFFFFFFFFFFFFFFFFFFFFFFFFFFFFFFFFFF AND CALLER PUSH20 0xFFFFFFFFFFFFFFFFFFFFFFFFFFFFFFFFFFFFFFFF AND EQ ISZERO ISZERO PUSH2 0x27A JUMPI PUSH1 0x0 DUP1 REVERT JUMPDEST PUSH1 0x0 PUSH1 0x14 SWAP1 SLOAD SWAP1 PUSH2 0x100 EXP SWAP1 DIV PUSH1 0xFF AND ISZERO ISZERO ISZERO PUSH2 0x296 JUMPI PUSH1 0x0 DUP1 REVERT JUMPDEST PUSH1 0x1 PUSH1 0x0 PUSH1 0x14 PUSH2 0x100 EXP DUP2 SLOAD DUP2 PUSH1 0xFF MUL NOT AND SWAP1 DUP4 ISZERO ISZERO MUL OR SWAP1 SSTORE POP PUSH32 0x6985A02210A168E66602D3235CB6DB0E70F92B3BA4D376A33C0F3D9434BFF625 PUSH1 0x40 MLOAD PUSH1 0x40 MLOAD DUP1 SWAP2 SUB SWAP1 LOG1 JUMP JUMPDEST PUSH1 0x0 DUP1 SWAP1 SLOAD SWAP1 PUSH2 0x100 EXP SWAP1 DIV PUSH20 0xFFFFFFFFFFFFFFFFFFFFFFFFFFFFFFFFFFFFFFFF AND DUP2 JUMP JUMPDEST PUSH1 0x0 DUP1 SWAP1 SLOAD SWAP1 PUSH2 0x100 EXP SWAP1 DIV PUSH20 0xFFFFFFFFFFFFFFFFFFFFFFFFFFFFFFFFFFFFFFFF AND PUSH20 0xFFFFFFFFFFFFFFFFFFFFFFFFFFFFFFFFFFFFFFFF AND CALLER PUSH20 0xFFFFFFFFFFFFFFFFFFFFFFFFFFFFFFFFFFFFFFFF AND EQ ISZERO ISZERO PUSH2 0x35F JUMPI PUSH1 0x0 DUP1 REVERT JUMPDEST PUSH1 0x0 PUSH20 0xFFFFFFFFFFFFFFFFFFFFFFFFFFFFFFFFFFFFFFFF AND DUP2 PUSH20 0xFFFFFFFFFFFFFFFFFFFFFFFFFFFFFFFFFFFFFFFF AND EQ ISZERO ISZERO PUSH2 0x3D6 JUMPI DUP1 PUSH1 0x0 DUP1 PUSH2 0x100 EXP DUP2 SLOAD DUP2 PUSH20 0xFFFFFFFFFFFFFFFFFFFFFFFFFFFFFFFFFFFFFFFF MUL NOT AND SWAP1 DUP4 PUSH20 0xFFFFFFFFFFFFFFFFFFFFFFFFFFFFFFFFFFFFFFFF AND MUL OR SWAP1 SSTORE POP JUMPDEST POP JUMP STOP LOG1 PUSH6 0x627A7A723058 KECCAK256 RETURN 0xd1 SLOAD MSTORE8 0xe7 0x23 0x4e ORIGIN DIFFICULTY 0xd8 BLOCKHASH EXTCODESIZE PC CODECOPY SSTORE PUSH30 0x794E968D19B398DF8EB5672207226DE20029000000000000000000000000 "
        },
        "gasEstimates": {
          "creation": {
            "codeDepositCost": "205800",
            "executionCost": "40810",
            "totalCost": "246610"
          },
          "external": {
            "owner()": "479",
            "pause()": "21833",
            "paused()": "485",
            "transferOwnership(address)": "20821",
            "unpause()": "21786"
          }
        },
        "methodIdentifiers": {
          "owner()": "8da5cb5b",
          "pause()": "8456cb59",
          "paused()": "5c975abb",
          "transferOwnership(address)": "f2fde38b",
          "unpause()": "3f4ba83a"
        }
      },
      "userdoc": {
        "methods": {}
      }
    }
  }
}